:06000000021282020D86CF
:0F000B00020B5C308E08758D30758B30C28F32D2
:10001B0002000EC2D530F707B2D563F0FF05F03002
:10002B00E70CB2D5F4048463F0FF05F08001843053
:10003B00D502F40422BB010689828A83E022500296
:10004B00E722BBFE02E32289828A83E49322BB016F
:10005B000CE58229F582E5833AF583E0225006E927
:10006B002582F8E622BBFE06E92582F8E222E5822C
:10007B0029F582E5833AF583E49322C2D5EC30E788
:10008B0009B2D5E4C39DFDE49CFCEE30E715B2D577
:10009B00E4C39FFFE49EFE120287C3E49DFDE49C34
:1000AB00FC800312028730D507C3E49FFFE49EFE5A
:1000BB0022A42582F582E5F03583F58322E3F5F062
:1000CB0009E208B5F06D606B80F3E3F5F009E60823
:1000DB00B5F060605E80F387F009E608B5F0546018
:1000EB005280F487F009E208B5F048604680F48846
:1000FB00828C8387F009E0A3B5F038603680F488F2
:10010B00828C8387F009E493A3B5F027602580F3F5
:10011B0088828C83E3F5F009E0A3B5F016601480B8
:10012B00F388828C83E3F5F009E493A3B5F00460C4
:10013B000280F20201F3808580E7808E80D2803CC2
:10014B008015806C807E809B80B5808B80A1804FDA
:10015B008070803A0201FF89828A83ECFAE493F57E
:10016B00F0A3C8C582C8CCC583CCE493A3C8C58211
:10017B00C8CCC583CCB5F070606E80E189828A8370
:10018B00E493F5F0A3E208B5F05E605C80F289823F
:10019B008A83E0F5F0A3E608B5F04D604B80F38958
:1001AB00828A83E0F5F0A3E208B5F03C603A80F375
:1001BB0089828A83E493F5F0A3E608B5F02A6028D8
:1001CB0080F2805389828A83ECFAE493F5F0A3C81A
:1001DB00C582C8CCC583CCE0A3C8C582C8CCC583B7
:1001EB00CCB5F004600280E27FFFB5F0020F224035
:1001FB00027F012289828A83ECFAE0F5F0A3C8C55D
:10020B0082C8CCC583CCE0A3C8C582C8CCC583CC7F
:10021B00B5F0D560D380E389828A83ECFAE0F5F000
:10022B00A3C8C582C8CCC583CCE493A3C8C582C878
:10023B00CCC583CCB5F0B160AF80E288F0ED240281
:10024B00B4040050A3F582EB2402B40400509923AC
:10025B002345822390014173BB010689828A83F077
:10026B00225002F722BBFE01F322EF8DF0A4A8F07F
:10027B00CF8CF0A428CE8DF0A42EFE22BC000BBE9A
:10028B000029EF8DF084FFADF022E4CCF875F00877
:10029B00EF2FFFEE33FEEC33FCEE9DEC984005FCAC
:1002AB00EE9DFE0FD5F0E9E4CEFD22EDF8F5F0EE74
:1002BB008420D21CFEADF075F008EF2FFFED33FD5F
:1002CB004007985006D5F0F222C398FD0FD5F0EAFF
:1002DB0022FAE6FB0808E6F925F0F618E6CA3AF624
:1002EB0022D083D082F8E4937012740193700DA323
:1002FB00A393F8740193F5828883E4737402936873
:10030B0060EFA3A3A380DF8B408A418942E4FFFE09
:10031B00F543F544AB40AA41A9428F828E8312006C
:10032B0059FD642C600D74452FF8A6050FBF000115
:10033B000E80E174452FF8E4F6E5422FF9E5413ED6
:10034B00FAE92401F9E43A85404CF54D894E78459C
:10035B007C007D007BFF7A0E79CE120246EF33953F
:10036B00E04F700EAB4CAA4DA94E1206968E108F15
:10037B00112278457C007D007BFF7A0E79D3120227
:10038B0046EF3395E04F700EAB4CAA4DA94E1206BB
:10039B00968E0C8F0D2278457C007D007BFF7A0EAC
:1003AB0079D9120246EF3395E04F700EAB4CAA4D44
:1003BB00A94E1206968E128F132278457C007D0073
:1003CB007BFF7A0E79DD120246EF3395E04F700E0C
:1003DB00AB4CAA4DA94E1206968E148F152278455A
:1003EB007C007D007BFF7A0E79E2120246EF33959B
:1003FB00E04F700EAB4CAA4DA94E1206968E0A8F8B
:10040B000B2278457C007D007BFF7A0E79E9120286
:10041B0046EF3395E04F700EAB4CAA4DA94E12062A
:10042B00968E088F092278457C007D007BFF7A0E23
:10043B0079F0120246EF3395E04F7034AB4CAA4D76
:10044B00A94E1206968E188F19AB4CE54E2403F964
:10045B00E4354DFA1206968E168F17AB4CE54E24EB
:10046B0006F9E4354DFA1206968E0E8F0F120D64B7
:10047B0022E4F522F523752400752554F5267527FE
:10048B000075285F0509E50970020508FF1207CC06
:10049B00E509643C45087072F508F509050BE50B99
:1004AB007002050A643C450A7060F50AF50B0515E8
:1004BB00E5157002051464184514704EF514F51506
:1004CB000513E5137002051274AC250DF582740E3D
:1004DB00350CF583E493FF3395E0FED3E5139FEEE4
:1004EB006480F8E5126480984020E4F512F513055A
:1004FB000DE50D7002050C640C450C700DF50C75BB
:10050B000D010511E51170020510752CFF752D0EEF
:10051B00752E8B85102F851130850C31850D32850D
:10052B001233851334AB23AA24A92512085C752C2E
:10053B00FF752D0E752E9985142F851530850A3173
:10054B00850B32850833850934AE12AF137C007DE1
:10055B0007120086900EB675F003ED1200BCEC7519
:10056B00F003A42583F583E493FB740193FA7402DF
:10057B00938B358A36F537AB26AA27A92812085C48
:10058B007B007A00795422C2B1120E25120E44124E
:10059B000E4F12074420B059753D01753E9AE4F594
:1005AB003FC20AC2AFE53E153EAE3D7002153D4E51
:1005BB00600E20B0F0120C84753D01753E9A80E5FB
:1005CB007B007A007974120312D20AD2AFE4F53FA2
:1005DB00C3E53F940C7480948050137474253FF8DA
:1005EB00E6600B7474253FF8E4F6053F80E2E4F512
:1005FB0073E572604BAE08AF097C007D0A12008672
:10060B007F04120C3AAE08AF097C007D0A120086FB
:10061B00AC06AD077F03120C3AAE0AAF0B7C007D24
:10062B000A1200867F02120C3AAE0AAF0B7C007DD9
:10063B000A120086AC06AD077F01120C3A0205A028
:10064B00AE12AF137C007D0A1200867F04120C3AA7
:10065B00AE12AF137C007D0A120086AC06AD077F8D
:10066B0003120C3AAE0CAF0D7C007D0A1200867F94
:10067B0002120C3AAE0CAF0D7C007D0A120086AC58
:10068B0006AD077F01120C3A0205A08B4F8A5089E9
:10069B0051AB4FAA50A951120040FF120E12500D30
:1006AB0074012551F551E43550F55080E4D209AB76
:1006BB004FAA50A951120040FF642B6004EFB42DD8
:1006CB001BAB4F0551E551AA507002055014F9129E
:1006DB000040642D6003D38001C39209E4F552F509
:1006EB0053AB4FAA50A951120040FF120E35503692
:1006FB00AB4FAA50A951120040FF3395E0FEEF24F7
:10070B00D0FBEE34FFFAAE52AF537C007D0A1202DF
:10071B0075EF2BF553EE3AF55274012551F551E473
:10072B003550F55080BB300906AE52AF538009C32C
:10073B00E49553FFE49552FE227F007E20120DD3E9
:10074B00EF75F064A4FFAEF0C006C0077F027E20F9
:10075B00120DD3EFFDD0E02DF511D0E03400F510E4
:10076B007F047E20120DD3750C008F0D7F067E202B
:10077B00120DD37512008F137F087E20120DD375C7
:10078B0014008F157F107E20120DD3750A008F0B6E
:10079B007F127E20120DD37508008F097F007E22F9
:1007AB00120DD37518008F197F027E22120DD3758F
:1007BB0016008F177F047E22120DD3750E008F0F3C
:1007CB0022D2A4D2A5D2A6D2A7EF75F00412001E96
:1007DB00AFF0EFFD3395E0FC4D7003C2A422ED6446
:1007EB00014C7003C2A522ED64024C7003C2A62219
:0307FB00C2A72270
:10080000E538242CF8E60538227829300702782CC0
:10081000E475F0011202DC0200402000EB7F2ED2D2
:10082000008018EF540F2490D43440D4FF30040BD0
:10083000EF24BFB41A0050032461FFE539600215AC
:1008400039053CE53C7002053B30070D7829E4751D
:10085000F0011202DCEF020263020D187403D207EA
:100860008003E4C207F5388B298A2A892BE4F539FD
:10087000F53BF53CE53960077F2012083B80F575B4
:100880003AFFC201C200C202C203C205C206C208C8
:10089000120809FF700D3007057F0012084CAF3CAD
:1008A000AE3B22B4255FC2D5C204120809FF24D092
:1008B000B40A00501A75F00A783930D50508B6FF29
:1008C0000106C6A426F620D5047002D20380D924DE
:1008D000CFB41A00EF5004C2E5D204020A4CD20190
:1008E00080C6D20080C0D20280BCD2D580BAD205E8
:1008F00080B47F2012083B2002077401B539004004
:10090000F1120800FF12083B020874D208D20680D8
:1009100095120800FB120800FA120800F94A4B7001
:1009200006791D7A0B7BFF20022EE539602A7E00B6
:100930008E8275830012005960060EEE653A70F0E3
:10094000C2D5EBC0E0EAC0E0E9C0E0EE120A93D005
:10095000E0F9D0E0FAD0E0FB120040FF60AAEBC063
:10096000E0EAC0E0E9C0E012083BD0E02401F9D0A1
:10097000E03400FAD0E0FBE53A0460DCD53AD980F7
:10098000877BFF7A0A798FD202809C791080027966
:1009900008C206C2088008D2D5790A8004790AC242
:1009A000D5E53A047002F53AE4FAFDFEFF120800BC
:1009B000FC7B08200113120800FD7B1030000A1296
:1009C0000800FE120800FF7B20EC3382D592D55040
:1009D00013C3E43000069FFFE49EFEE42001039D64
:1009E000FDE49CFCE4CBF8C201EC700CCFCECDCC86
:1009F000E824F8F870F38017C3EF33FFEE33FEED11
:100A000033FDEC33FCEB33FB994002FB0FD8E9EBF1
:100A1000300105F8D0E0C448B201C0E00AEC4D4E08
:100A20004F78207B0070C2EAB53A0040BCC0E012AB
:100A30000A95D0F0D0E0200104C4C0E0C4B201C0E7
:100A4000F0120824D0F0D5F0EB0208741202EC0981
:100A50001153098B5808E24C08DE42098F4F099761
:100A60004409974908F743099D550981460981457D
:100A70000981470B3D5008E62D08EA2E090D2B0889
:100A8000EE23090B200B262A08A648000009053F83
:100A90003F3F00790AA2D5200314300509B910029E
:100AA0000404B9080104A2D5200602500104200262
:100AB000689202B539005034C0E07F203003197FBE
:100AC00030A20272067205500F120AECC202C20670
:100AD000C205C2087F30800F300503E9C0E012086C
:100AE0003B300503D0E0F9D0E0B539CC3005177FB5
:100AF00030B9100C12083B7F583004077F78800310
:100B0000B9080312083B3002057F2D02083B7F2005
:100B10002008F87F2B2006F322920280CF286E75E2
:100B20006C6C2900D2011208003001F8C20178393A
:100B300030D50108F60208A62D5043495812080086
:100B40002403B405004001E4900B389312082C7480
:100B50003A12082CD20375390402098BC0E0C0F0A8
:100B6000C083C082C0D075D000C000C001C002C028
:100B700003C004C005C006C007758CFC758A180543
:100B800071E57170020570C394E8E5706480948328
:100B90004033300A3012047C120D3F851828851925
:100BA0002985162A85172B850E2C850F2DAB09AAB2
:100BB00008AD0BAC0AAF15AE14120DA2120BE07506
:100BC0007000757100D007D006D005D004D003D0D6
:100BD00002D001D000D0D0D082D083D0F0D0E0328B
:100BE0007F007E20120DFEAE10AF117C007D6412DE
:100BF0000086AD077F007E20120DBDAE10AF117CC8
:100C0000007D641200867F027E20120DBDAD0D7F37
:100C1000047E20120DBDAD137F067E20120DBDADEA
:100C2000157F087E20120DBDAD0B7F107E20120DAA
:100C3000BDAD097F127E20020DBDEF24FE601014B1
:100C4000601714601E24037022C2A3D2A28004D2B3
:100C5000A3C2A2D2A1D2A08012D2A3D2A2C2A1D2F8
:100C6000A08008D2A3D2A2D2A1C2A074F22DF58294
:100C7000740E3CF583E493F5807F017E00120DE94C
:100C80007580FF22754008E4F54120B028D28E809F
:100C900013AF401540EF6011E541C313F54130B08B
:100CA00003434180120E6780E8AF73057374742F9D
:100CB000F8A641C28E22021007E6020C000A0212B8
:100CC000000A0214000A020A00160208002702188D
:100CD000000002160000020E003C017300017201C8
:100CE000C18A02700000008F25752608E52525259C
:100CF000F525D28ED2B1120E67AF261526EF601001
:100D0000E5251392B1120E67E525C313F52580E999
:100D1000C2B1120E67C28E22EFB40A07740D120D13
:100D200023740A309811A899B8130CC2983098FD12
:100D3000A899C298B811F63099FDC299F599228BFD
:100D4000228A238924AB22AA23A9241200406013FB
:100D50000524E5247002052314F9120040FF120C4B
:100D6000E780E2227F007E22120DFEAD197F007E19
:100D700022120DBDAD177F027E22120DBDAD0F7F79
:100D8000047E22020DBDC0E0C0D075D000C007E5D2
:100D9000727F0070027F018F72D290D007D0D0D0C6
:100DA000E032EFB52916EEB52812EDB52B0EECB5F5
:100DB0002A0AEBB52D06EAB52C02C29022AB07AA8F
:100DC0000675E78175E5028AE38BE48DE2120E6019
:100DD000020E58AD07AC0675E78175E5018CE38D11
:100DE000E4120E60AFE2020E58EF1FAC0670011E57
:100DF0004C600A7D027CEFDCFEDDFC80EC22AD075E
:100E0000AC0675E78175E5038CE38DE4120E600294
:100E10000E58EFC394094005EF940E4003BF200322
:100E2000D38001C322758921758B30858B8DD2AB20
:100E3000D28EC28F22EFC394304007EF943A500213
:100E40008001C322D2A9D288D2A8C2ACD2AF227567
:100E50008CFC758A18D28C22E4F5E7F5E5F5E622DC
:100E600075E64675E6B922308FFDC28F224D6F6E52
:100E700000547565730057656400546875720046C8
:100E80007269005361740053756E0025642D25301E
:100E900032642D253032642000253032643A25300A
:100EA00032643A25303264202573200A001F1C1F4B
:100EB0001E1F1E1F1F1E1F1E1FFF0E6DFF0E71FF28
:100EC0000E76FF0E7AFF0E7FFF0E83FF0E87796589
:100ED0006172006D6F6E74680064617900686F758F
:100EE00072006D696E757465007365636F6E640082
:0C0EF0006300039F250D9949411F010973
:10128200787FE4F6D8FD75817F0212C9020592E4E7
:1012920093A3F8E493A34003F68001F208DFF480FD
:1012A20029E493A3F85407240CC8C333C4540F444D
:1012B20020C8834004F456800146F6DFE4800B0127
:1012C20002040810204080900CB6E47E019360BCBA
:1012D200A3FF543F30E509541FFEE493A360010EBF
:1012E200CF54C025E060A840B8E493A3FAE493A3E6
:1012F200F8E493A3C8C582C8CAC583CAF0A3C8C507
:0C13020082C8CAC583CADFE9DEE780BEEE
:00000001FF
